:020000040000FA
:100000000C9458000C9480000C9480000C94840D87
:100010000C94840D0C94840D0C9480000C9480003E
:100020000C9480000C9480000C9480000C94800050
:100030000C9480000C9480000C9480000C94800040
:100040000C94E20C0C9480000C94520D0C942C0D2A
:100050000C9480000C9480000C9480000C94800020
:100060000C948E0D0C9480000000000025002800E8
:100070002B00040404040404040402020202020229
:10008000030303030303010204081020408001025C
:1000900004081020010204081020000000080002DB
:1000A0000100000304070000000000000000AD0E86
:1000B00011241FBECFEFD8E0DEBFCDBF26E0ACE6F7
:1000C000B2E001C01D92AE3BB207E1F712E0A0E042
:1000D000B1E0EEE4FCE202C005900D92AC36B1074F
:1000E000D9F710E0C8E5D0E004C02197FE010E94D6
:1000F0007E13C735D107C9F70E946A0F0C942516E5
:100100000C94000090E0FC01E656FF4F2491FC01A6
:10011000EA57FF4F3491FC01EE58FF4FE491EE2374
:10012000C9F0222339F0233001F1A8F4213019F16C
:10013000223029F1F0E0EE0FFF1FE859FF4FA591A3
:10014000B4918FB7F894EC91611126C030953E239D
:100150003C938FBF08952730A9F02830C9F0243090
:1001600049F7809180008F7D03C0809180008F7758
:1001700080938000DFCF84B58F7784BDDBCF84B5DB
:100180008F7DFBCF8091B0008F778093B000D2CF6E
:100190008091B0008F7DF9CF3E2BDACF3FB7F89436
:1001A00080912E0590912F05A0913005B0913105D9
:1001B00026B5A89B05C02F3F19F00196A11DB11DC2
:1001C0003FBFBA2FA92F982F8827BC01CD01620FFE
:1001D000711D811D911D42E0660F771F881F991FB9
:1001E0004A95D1F708958F929F92AF92BF92CF9286
:1001F000DF92EF92FF924B015C010E94CE006B01F7
:100200007C010E94CE006C197D098E099F09683E11
:10021000734081059105A8F321E0821A9108A10895
:10022000B10888EEC80E83E0D81EE11CF11C8114D1
:100230009104A104B10429F7FF90EF90DF90CF90D3
:10024000BF90AF909F908F9008952FB7F8946091D2
:100250002A0570912B0580912C0590912D052FBFBB
:100260000895089561E08DE00C94820010921305CA
:1002700010921205089581E090E090931305809309
:100280001205089508950895AF92BF92CF92DF921C
:10029000EF92FF920F931F93CF93DF936C017B013B
:1002A0008B01040F151FEB015E01AE18BF08C017CC
:1002B000D10759F06991D601ED91FC910190F0813F
:1002C000E02DC6010995892B79F7C501DF91CF9102
:1002D0001F910F91FF90EF90DF90CF90BF90AF9064
:1002E0000895FC01538D448D252F30E0842F90E03C
:1002F000821B930B541710F0CF9608950197089521
:10030000FC01918D828D981761F0A28DAE0FBF2FE9
:10031000B11D5D968C91928D9F5F9F73928F90E03F
:1003200008958FEF9FEF0895FC01918D828D9817AE
:1003300031F0828DE80FF11D858D90E008958FEFEB
:100340009FEF0895FC01918D228D892F90E0805CB4
:100350009F4F821B91098F739927089580E895E03C
:100360000E94A20121E0892B09F420E0822F089548
:1003700080E090E0892B29F00E94AE0181110C945D
:1003800000000895FC01A48DA80FB92FB11DA35A38
:10039000BF4F2C91848D90E001968F739927848FA5
:1003A000A689B7892C93A089B1898C9183708064C8
:1003B0008C93938D848D981306C00288F389E02D69
:1003C00080818F7D80830895EF92FF920F931F931A
:1003D000CF93DF93EC0181E0888F9B8D8C8D9813F8
:1003E0001AC0E889F989808185FF15C09FB7F89404
:1003F000EE89FF896083E889F98980818370806450
:1004000080839FBF81E090E0DF91CF911F910F919A
:10041000FF90EF900895F62E0B8D10E00F5F1F4FA9
:100420000F731127E02E8C8D8E110CC00FB607FCB8
:10043000FACFE889F989808185FFF5CFCE010E9446
:10044000C201F1CFEB8DEC0FFD2FF11DE35AFF4FF1
:10045000F0829FB7F8940B8FEA89FB8980818062D4
:10046000CFCF6FEF80E895E00C94E401CF93DF935A
:10047000EC01888D8823B9F0AA89BB89E889F989BC
:100480008C9185FD03C0808186FD0DC00FB607FCF1
:10049000F7CF8C9185FFF2CF808185FFEDCFCE0124
:1004A0000E94C201E9CFDF91CF9108952091D0023F
:1004B000211109C021E02093D00230911D06209126
:1004C0001E063CBD2DBD60E0FC0184810C948200C1
:1004D00061E0FC0184810E9482008091D002811140
:1004E0001092D00208958EBD00000DB407FEFDCF1E
:1004F0008EB508958FEF0C9473020F931F93CF93D3
:10050000DF93EC010E9425018B010E947A028F3F4C
:1005100069F00E942501601B710B6C177D07A8F321
:1005200080E0DF91CF911F910F91089581E0F9CF85
:10053000CF92DF92EF92FF920F931F93CF93DF93AF
:10054000EC01162F69017A018E81882389F08F8151
:1005500098859C012F5F3F4F38872F8382309240D0
:1005600018F40E947A02F3CFCE010E9468021E8224
:10057000CE010E9456028CE291E00E947D02812F02
:1005800080640E94730208E110E0D701C601002ECA
:1005900004C0B695A795979587950A94D2F70E94BF
:1005A000730208501109083F8FEF180771F78FEF9A
:1005B0000E94730210E00E947A028A8787FF04C0BB
:1005C0001F3F11F01F5FF7CFDF91CF911F910F9168
:1005D000FF90EF90DF90CF900895CF92DF92EF924F
:1005E000FF920F93CF93DF93EC01690182E14115F4
:1005F00051056105710599F08B85833039F089E0EB
:10060000440F551F661F771F8A95D1F79A01AB01DA
:1006100068E1CE010E949802882319F084E08D835E
:100620002DC08EEF0E94730276018EEFD81AF7016B
:1006300081917F010E947302EC14FD04C1F78FEFDA
:100640000E9473028FEF0E9473020E947A028A87CF
:100650008F71853071F4011116C0CE010E946802BD
:1006600081E0DF91CF910F91FF90EF90DF90CF90DD
:10067000089581E18D83CE010E946802CE010E941F
:10068000680280E0EECF88E592E00E947D02811151
:1006900002C085E1C4CF20E030E0A9016DE0CE01C9
:1006A0000E949802882311F084E1B9CF0E947A0257
:1006B0008111FACFD2CF0F934091D2025091D30241
:1006C0006091D4027091D502411551056105710503
:1006D00089F0082F26ED32E090E080E00E94ED02E4
:1006E000882349F01092D2021092D3021092D402C1
:1006F0001092D50281E00F9108950F93CF93C82FE8
:100700008091D102811105C0C1E08C2FCF910F9152
:100710000895409178015091790160917A0170912A
:100720007B010C2F26ED32E090E080E00E94ED028C
:10073000811102C0C0E0E9CFCC2331F381E00E94F7
:100740005B038823B9F31092D102DFCFAF92BF923F
:10075000CF92DF92EF92FF921F93CF93DF936B01C3
:100760007C01142F8091780190917901A0917A01F8
:10077000B0917B018C159D05AE05BF0509F4ADC098
:1007800081E00E947D038823E1F1809106008823A7
:10079000A1F08091000090910100A0910200B09121
:1007A0000300C816D906EA06FB0639F48091070053
:1007B00090910800892B09F44FC0C0920000D0929C
:1007C0000100E0920200F092030080910B00A7016B
:1007D0009601833039F099E0220F331F441F551FD3
:1007E0009A95D1F761E190E080E00E949802882319
:1007F00091F083E08093050090E080E00E94680221
:1008000080E0DF91CF911F91FF90EF90DF90CF902C
:10081000BF90AF9008950E942501EB010E947A02DB
:1008200080930A008F3F79F40E9425016C1B7D0B99
:100830006D32714098F38FE08093050090E080E086
:100840000E946802D9CF8E3FC1F510920800109225
:10085000070081E080930600C6EDD2E086EDA82E69
:1008600084E0B82E0E947A028993AC16BD06D1F7B7
:1008700080910700909108009E5F909308008093FC
:10088000070020910900222319F081159240E8F019
:10089000809106008823C9F080910700909108009C
:1008A0009C012F5F3F4F3093080020930700823058
:1008B000924028F40E947A02EFCF8DE0BDCF90E005
:1008C00080E00E94680210920600C0927801D092E7
:1008D0007901E0927A01F0927B014091D102412BA3
:1008E0004093D10281E08DCF4F925F926F927F92C1
:1008F0008F929F92AF92BF92CF92DF92EF92FF9230
:100900000F931F93CF93DF93EC01423051056105A4
:10091000710590F480E0DF91CF911F910F91FF90CE
:10092000EF90DF90CF90BF90AF909F908F907F908F
:100930006F905F904F90089589859A85AB85BC85AF
:100940000196A11DB11D84179507A607B70710F3DF
:10095000CB88DC88ED88FE888F89803109F042C021
:10096000BB27A72F962F852F480159012A013B014C
:10097000C80ED91EEA1EFB1E809178019091790164
:10098000A0917A01B0917B01C816D906EA06FB0650
:1009900099F58F898031C1F5B301A20155276627EA
:1009A0007727440F551F4A525D4FFA01918280828A
:1009B0008091D10281608093D1028A89823080F057
:1009C0008D819E81AF81B8858C0D9D1DAE1DBF1D93
:1009D0008093D2029093D302A093D402B093D50215
:1009E00081E099CFDB01CA01E7E0B695A79597951D
:1009F0008795EA95D1F7B8CF40E0C701B6010E94CC
:100A0000A6038111C6CF86CFB301A2014F77552728
:100A100066277727440F551F440F551F4A525D4FD5
:100A2000FA0180829182A282B382C2CF8F929F927A
:100A3000AF92BF92CF92DF92EF92FF920F931F93EC
:100A4000CF93DF93FC0181859285A385B4850196C0
:100A5000A11DB11D84179507A607B70770F480E0A4
:100A6000DF91CF911F910F91FF90EF90DF90CF908A
:100A7000BF90AF909F908F90089583889488A588A9
:100A8000B6888789803189F5BB27A72F962F852FB8
:100A9000E9016A017B018F01BC01CD01680D791D5F
:100AA0008A1D9B1D8090780190907901A0907A0119
:100AB000B0907B0186169706A806B90601F5F801E5
:100AC0008789803111F5DD24EE24FF24F601EE0F35
:100AD000FF1FEA52FD4F80819181B0E0A0E0888342
:100AE0009983AA83BB8381E0BBCFDB01CA01C7E046
:100AF000B695A79597958795CA95D1F7C9CF40E048
:100B00000E94A6038111DBCFAACFE894C7F8DD24A9
:100B1000EE24FF24F601EE0FFF1FEE0FFF1FEA5237
:100B2000FD4F80819181A281B381BF70D8CF8F9218
:100B30009F92AF92BF92CF92DF92EF92FF920F936C
:100B40001F93CF93DF93EC018D8181110EC080E064
:100B5000DF91CF911F910F91FF90EF90DF90CF9099
:100B6000BF90AF909F908F9008950B891C892D891D
:100B70003E89041715072607370748F34A015B012A
:100B8000823031F48A869B86AC86BD8681E0E0CFD8
:100B900081149104A104B10449F41E821F821886B5
:100BA00019861A861B861C861D86F0CF0A851B8532
:100BB0002C853D85EB8DFC8D858590E00996B901EE
:100BC000A8014150510961097109082E04C07695A8
:100BD0006795579547950A94D2F775016401E1E04E
:100BE000CE1AD108E108F10804C0F694E794D7942E
:100BF000C7948A95D2F7C416D506E606F70620F004
:100C0000012B022B032B11F58F89988DA98DBA8D9D
:100C10008E839F83A887B9878E010A5F1F4FC114F7
:100C2000D104E104F10409F4ADCF4E815F81688500
:100C3000798598018B8D9C8D0E94160591E0C91ACB
:100C4000D108E108F1088111EACF81CFC41AD50A91
:100C5000E60AF70AE1CF3F924F925F926F927F923E
:100C60008F929F92AF92BF92CF92DF92EF92FF92BC
:100C70000F931F93CF93DF93CDB7DEB72C970FB6AB
:100C8000F894DEBF0FBECDBF5C01DC015B968D909A
:100C90009C905C9716964D905D906D907C90199706
:100CA000411451046104710409F468C0BFEF4B1A88
:100CB0005B0A6B0A7B0A312CF40181859285A3853E
:100CC000B4859C01AD012F5F3F4F4F4F5F4F298788
:100CD0003A874B875C87730162011D821E821F82E7
:100CE0001886F40181859285A385B4852D813E8186
:100CF0004F815885281739074A075B0708F056C007
:100D000089859A85AB85BC858C159D05AE05BF058B
:100D100050F482E0C82ED12CE12CF12C92E0492E27
:100D2000512C612C712C9E012F5F3F4FB701A60102
:100D3000C4010E9416058823C9F189819A81AB817B
:100D4000BC81892B8A2B8B2B09F1260137019FEF60
:100D5000491A590A690A790A2D813E814F815885BD
:100D60002F5F3F4F4F4F5F4F2D833E834F835887F9
:100D70003FEFC31AD30AE30AF30AB3CFF40140806A
:100D80005180628073803324339496CFC414D50489
:100D9000E604F70409F70FEF1FEF2FEF3FE0B7016D
:100DA000A601C4010E947404811119C080E02C9630
:100DB0000FB6F894DEBF0FBECDBFDF91CF911F916C
:100DC0000F91FF90EF90DF90CF90BF90AF909F90EA
:100DD0008F907F906F905F904F903F900895D501D6
:100DE00016964D915D916D917C9119974115510524
:100DF0006105710539F097018601C4010E947404F0
:100E00008823A1F2D5011696CD92DD92ED92FC9247
:100E10001997332051F0D701C6010196A11DB11DCC
:100E2000F40180839183A283B383F5018789908D38
:100E3000A18DB28D892B8A2B8B2B39F48481C78AA3
:100E4000D08EE18EF28E80688483F5018481806289
:100E5000848381E0ACCF1F93CF93DF93EC01162FF7
:100E60008C8187FF2AC06E857F858889998941E0BA
:100E70000E94A603882361F1EA8980E2E89FF001DD
:100E80001124EA52FD4F309719F18D81823040F4E0
:100E90008B899C89AD89BE89848F958FA68FB78FEA
:100EA0008F89988D938F828F8F89988DA98DBA8D18
:100EB000B58BA48B8C818F778C83111103C08C81AF
:100EC0008F7E8C83812FDF91CF911F910C947D03B6
:100ED00080E0DF91CF911F9108951F93CF93DF930F
:100EE000EC018D81813031F090E080E0DF91CF9195
:100EF0001F9108958C8181FFF7CF82FD1BC090E088
:100F000080E00E9456020E947A02182F90E080E052
:100F10000E9468021F3F41F78C8185FF1EC08D81B2
:100F2000882321F060E0CE010E942B078C818F7D09
:100F30008C83DACF4B895C896D897E898A859B8514
:100F4000AC85BD8584179507A607B707C1F2CE010A
:100F50000E9497058111D3CFC7CF4091D202509103
:100F6000D3026091D4027091D502452B462B472BBA
:100F700021F080E00E945B03B7CF80618C832A85DB
:100F80003B85317080E092E0821B930BAFCF9F9244
:100F9000AF92BF92CF92DF92EF92FF920F931F9387
:100FA000CF93DF9300D000D01F92CDB7DEB78C0176
:100FB0006D83DC0115968C911597813009F0B9C0CD
:100FC00014968C9181FFB5C082FD9FC0D8015B96BD
:100FD000ED91FC915C971A96AD90BD90CD90DC9010
:100FE0001D9794809A94B601A50189E0769567953E
:100FF000579547958A95D1F79422B1E0BB22992065
:1010000009F49FC0D8015B96ED91FC915C97169610
:10101000CD90DD90ED90FC901997B2E0CB1AD108FD
:10102000E108F108858504C0CC0CDD1CEE1CFF1C1A
:101030008A95D2F74685578560897189C40ED51E79
:10104000E61EF71EC90CD11CE11CF11CA114B10451
:1010500009F00AC1F8014285538564857585838945
:101060009489A589B689481759076A077B0708F448
:10107000FBC081E00E947D03882309F45AC0C0921E
:101080007801D0927901E0927A01F0927B0180910F
:10109000D10281608093D102F501EA52FD4F8D812A
:1010A0008083F80182859385A485B5850196A11D6D
:1010B000B11D82879387A487B58743895489658941
:1010C0007689481759076A077B0738F42481838B90
:1010D000948BA58BB68B20682483D80114968C91B1
:1010E00083FD9FC081E090E00F900F900F900F90D4
:1010F0000F90DF91CF911F910F91FF90EF90DF90B4
:10110000CF90BF90AF909F900895F8014389548984
:101110006589768982859385A485B58548175907A1
:101120006A077B0709F452CFC8010E949705811115
:101130004DCF81E090E0D80113969C938E93129747
:1011400049C0D80116964D915D916D917C9119978A
:10115000A114B10409F071C0411551056105710573
:1011600089F557968D919D910D90BC91A02D00977A
:10117000A105B10509F04FC0C8010E942B068823C4
:10118000C1F2D8015B96ED91FC915C971696CD90DB
:10119000DD90ED90FC901997B2E0CB1AD108E108F0
:1011A000F108858504C0CC0CDD1CEE1CFF1C8A9563
:1011B000D2F74685578560897189C40ED51EE61E13
:1011C000F71E48CF9E012F5F3F4FCF010E941605AB
:1011D000811103C090E080E087CF89819A81AB8143
:1011E000BC81F801238D348DF901278948EF5FEF29
:1011F00060E070E0203121F048EF5FEF6FEF7FE0BB
:1012000084179507A607B70730F0C8010E942B0680
:101210008111F8CE8ECFF80186839783A087B1879E
:10122000F1CEF8018581882309F483CF61E0C801FC
:101230000E942B07811156CF7CCF6A017B01B2E05F
:10124000CB1AD108E108F108858504C0CC0CDD1C5F
:10125000EE1CFF1C8A95D2F74685578560897189F7
:10126000C40ED51EE61EF71E41E0C701B6010E945E
:10127000A603811111CF5DCF08952091AD02260FF5
:101280003327331F21323105ECF420915805FC013E
:1012900090E080E0243069F082E00895A091AD02F2
:1012A0002191AC0143575D4FA40FB52FB11D2C9375
:1012B0000196861798F38091AD02680F6093AD0296
:1012C00080E0089581E008951092580581E08093B0
:1012D00057051092520561E082E10E94820061E0B0
:1012E00083E10E948200E9EBF0E080818E7F8083C1
:1012F00080818D7F808388E48093B80085E480932B
:10130000BC000895CF93DF9391E090938C028823E3
:10131000B9F0C091B800D091BA008091BC008A7B2E
:101320008093BC0060E082E10E94820060E083E183
:101330000E9482000E946409D093BA00C093B80052
:10134000DF91CF910895E0915F0580915E05E817E8
:1013500030F4F0E0E05AFA4F808190E008958FEF8A
:101360009FEF089590915F0580915E052FEF3FEF0D
:10137000981748F4E92FF0E0E05AFA4F208130E066
:101380009F5F90935F05C901089580915E059091DC
:101390005F05891B990B0895CF92DF92EF92FF9220
:1013A0000F931F93CF93DF937C01CB018A01209190
:1013B000DF04222389F0EB016B01C40ED51ECC158E
:1013C000DD0569F06991D701ED91FC910190F08103
:1013D000E02DC7010995F3CF642F0E943D09C80194
:1013E000DF91CF911F910F91FF90EF90DF90CF9001
:1013F0000895CF93DF931F92CDB7DEB76983209115
:10140000DF042223F9F02091DC04203258F021E09F
:1014100030E0FC013383228390E080E00F90DF9185
:10142000CF9108958091DD04E82FF0E0E459FD4F5D
:10143000998190838F5F8093DD048093DC0481E049
:1014400090E0ECCF61E0CE0101960E943D09F7CF1C
:10145000CF92DF92EF92FF920F931F93CF93DF9380
:10146000D091DC0481E0D13208F09CC0C091DE0450
:101470000E94CE006B017C018091580581116CC0E7
:1014800082E08093580581E0809357058FEF809329
:10149000560510925505D0935405ACE6B2E0E2E350
:1014A000F5E080E0D8138DC010925305809153056C
:1014B000CC0FC82BC093530580915205813009F0A1
:1014C00084C0109252050E94CE006B017C01809175
:1014D00053058093BB0080915A0590915B05A091C4
:1014E0005C05B0915D05892B8A2B8B2BA1F00E94A6
:1014F000CE0000915A0510915B0520915C0530915A
:101500005D056C197D098E099F09061717072807C5
:10151000390708F442C08091BC0083FDD8CF85EC28
:101520008093BC000E94CE006B017C018091580525
:10153000823009F44CC0809156058F3F09F469C090
:1015400080915605803209F466C08091560580333B
:1015500009F463C084E026C080915A0590915B0530
:10156000A0915C05B0915D05892B8A2B8B2B09F42A
:1015700083CF0E94CE0000915A0510915B05209107
:101580005C0530915D056C197D098E099F09061770
:1015900017072807390708F06FCF809159050E9477
:1015A000820985E01092DD041092DC041092DF04C1
:1015B000DF91CF911F910F91FF90EF90DF90CF902F
:1015C00008959D9191938F5F6DCF85EEA9CF809106
:1015D0005A0590915B05A0915C05B0915D05892B42
:1015E0008A2B8B2B09F4A2CF0E94CE0000915A05C2
:1015F00010915B0520915C0530915D056C197D09AA
:101600008E099F09061717072807390708F08ECF9C
:10161000C4CF80E0C7CF82E0C5CF83E0C3CF90E0E6
:1016200080E00895DC01ED91FC910190F081E02DC6
:1016300009940E9431020E9431020C9431028F926F
:101640009F92AF92BF920F931F93CF93DF93CDB72B
:10165000DEB7A1970FB6F894DEBF0FBECDBF19A2BB
:10166000423008F44AE08E010F5D1F4F842E912C0A
:10167000B12CA12CA50194010E942513E62FB901DC
:10168000CA01EA3044F5E05DD801EE938D01232BC9
:10169000242B252B79F790E080E0109769F0FD016D
:1016A00001900020E9F73197AF014A1B5B0BBD01A8
:1016B00080E895E00E944401A1960FB6F894DEBF41
:1016C0000FBECDBFDF91CF911F910F91BF90AF9013
:1016D0009F908F900895E95CD7CFFC010190002086
:1016E000E9F73197AF01481B590BBC0180E895E041
:1016F0000C944401CF92DF92EF92FF920F931F93CD
:101700000E94CE006B017C0180915805811163C05D
:1017100081E080935805809357059FEF909356057D
:1017200010925505109254058093530580915305EE
:10173000806D8093530580915205813009F07CC003
:10174000109252050E94CE006B017C0180915305DE
:101750008093BB0080915A0590915B05A0915C0538
:10176000B0915D05892B8A2B8B2BA1F00E94CE00B6
:1017700000915A0510915B0520915C0530915D0543
:101780006C197D098E099F09061717072807390765
:1017900008F442C08091BC0083FDD8CF85EC8093D3
:1017A000BC000E94CE006B017C0180915805813005
:1017B00009F444C080915505811162C0809155059E
:1017C000A2E3B5E0E0E6F5E090E0981751F12D9145
:1017D00021939F5FFACF80915A0590915B05A0916C
:1017E0005C05B0915D05892B8A2B8B2B09F48CCF7E
:1017F0000E94CE0000915A0510915B0520915C0576
:1018000030915D056C197D098E099F090617170730
:101810002807390708F078CF809159050E9482097E
:1018200080E010925F0580935E051F910F91FF90FD
:10183000EF90DF90CF90089585EEB1CF80915A055B
:1018400090915B05A0915C05B0915D05892B8A2B79
:101850008B2B09F4AACF0E94CE0000915A0510915B
:101860005B0520915C0530915D056C197D098E0941
:101870009F09061717072807390708F096CFCCCF1E
:1018800081E09ECF82ED91E00E946D0B4AE06AE01C
:1018900070E080E090E00E941F0B0C94190BBF9247
:1018A000CF92DF92EF92FF920F931F93CF93DF932C
:1018B000CAE8D1E000E011E080EEE82E84E0F82EE6
:1018C00098E2B92E2AEDC22E21E0D22EF7018B2DFF
:1018D00011928A95E9F78881998122969F938F9337
:1018E0001F930F93DF92CF92FF92EF920E94841387
:1018F00080EE94E00E946D0B0E94190B8B858F93F4
:101900008A858F93C801CC969F938F93DF92CF9255
:10191000FF92EF920E94841380EE94E00E946D0B80
:101920000E94190B065F1F4FEDB7FEB770960FB6FA
:10193000F894FEBF0FBEEDBFF1E0C639DF0731F608
:10194000DF91CF911F910F91FF90EF90DF90CF909B
:10195000BF90089585ED8093BC0080915A059091C9
:101960005B05A0915C05B0915D050796A11DB11DB9
:1019700023E0B695A795979587952A95D1F720915D
:10198000BC0024FD03C010925805089540915A05EB
:1019900050915B0560915C0570915D05452B462B70
:1019A000472B69F30097A105B10541F02AE22A957A
:1019B000F1F700C00197A109B109E1CF8091590564
:1019C0000C9482091F920F920FB60F9211242F933D
:1019D0003F938F939F93AF93BF9380912A059091EC
:1019E0002B05A0912C05B0912D053091290523E000
:1019F000230F2D3758F50196A11DB11D2093290500
:101A000080932A0590932B05A0932C05B0932D0568
:101A100080912E0590912F05A0913005B091310550
:101A20000196A11DB11D80932E0590932F05A093C3
:101A30003005B0933105BF91AF919F918F913F9148
:101A40002F910F900FBE0F901F90189526E8230F2F
:101A50000296A11DB11DD2CF1F920F920FB60F9209
:101A600011242F933F934F935F936F937F938F93A3
:101A70009F93AF93BF93EF93FF9380E895E00E940D
:101A8000C201FF91EF91BF91AF919F918F917F9193
:101A90006F915F914F913F912F910F900FBE0F90DB
:101AA0001F9018951F920F920FB60F9211242F932B
:101AB0008F939F93EF93FF93E0919005F0919105A1
:101AC0008081E0919605F091970582FD1BC0908181
:101AD000809199058F5F8F7320919A05821741F04D
:101AE000E0919905F0E0E058FA4F958F80939905C1
:101AF000FF91EF919F918F912F910F900FBE0F90BB
:101B00001F9018958081F4CF1F920F920FB60F92FD
:101B100011240F900FBE0F901F9018951F920F92D7
:101B20000FB60F9211242F933F934F935F936F93B0
:101B30007F938F939F93AF93BF93EF93FF93809186
:101B4000B900887F803609F44AC0F0F5883209F47C
:101B5000A7C018F5803109F49BC0B8F4882309F4B4
:101B6000F9C0883009F494C0FF91EF91BF91AF9113
:101B70009F918F917F916F915F914F913F912F91A5
:101B80000F900FBE0F901F901895883109F488C0F0
:101B9000803251F78093560514C0803409F49DC0FB
:101BA00040F48033B9F38833F9F68093560585EC19
:101BB000B0C0803509F485C0883509F496C08834F2
:101BC00099F60E94AA0CD0CF883909F48CC038F558
:101BD000883729F050F4883611F0803729F683E0F1
:101BE000809358051092CF0257C0883809F47BC003
:101BF000803919F0803809F0B7CF8091CF02803258
:101C000008F071C0E091CF0281E08E0F8093CF0287
:101C10008091BB00F0E0E155FD4F80833DC0803BEB
:101C200039F0E0F4803A09F479C0883A09F09CCFA1
:101C300084E0809358051092AE021092AD02E091BC
:101C4000DA04F091DB0409958091AD0281110FC097
:101C500081E08093AD0210928D0209C0803C09F4AE
:101C6000A6CF883C09F4A3CF883B09F07DCFE09153
:101C7000AE0281E08E0F8093AE02F0E0E357FD4F9D
:101C800080818093BB009091AE028091AD0229C00B
:101C9000809153058093BB0085EC8093BC0064CF9A
:101CA0009091550580915405981758F5E091550588
:101CB00081E08E0F80935505F0E0EE5CFA4F808155
:101CC000E9CFE091550581E08E0F80935505809115
:101CD000BB00F0E0EE5CFA4F808390915505809157
:101CE00054059817C8F285E8D8CFE091550581E0F2
:101CF0008E0F809355058091BB00F0E0EE5CFA4FAB
:101D000080838091570581115CCF81E080935205DB
:101D100084EA8093BC001092580526CF85EC80930E
:101D2000BC00109258058091CF02803230F4E091CF
:101D3000CF02F0E0E155FD4F10826091CF0270E0DC
:101D4000E091D804F091D9048FEA92E009951092BD
:101D5000CF020ACF1092560534CFE0E8F5E01382A7
:101D6000128288EE93E0A0E0B0E084839583A6839E
:101D7000B78326EA31E03183208325EC30E03587D4
:101D8000248724EC30E03787268720EC30E0318B45
:101D9000208B21EC30E0338B228B22EC30E0358B32
:101DA000248B26EC30E0378B268B118E128E138E0F
:101DB000148EEDE1F6E020E520831182EFE1F6E0FC
:101DC000158216821186138642E050E060E070E0D2
:101DD000448755876687778713A215A614A628EB34
:101DE00031E033A722A717A6E8E6F6E013821282B5
:101DF00084839583A683B78384EC91E09183808369
:101E0000F093BD06E093BC06E0EBF6E0108287E0BD
:101E1000818384EE91E093838283158214821186FC
:101E200010861386128617821682E4EAF6E081E0B5
:101E3000808395E191832DEE31E0338322831582F7
:101E40001482118610861386128617821682E8E99C
:101E5000F6E080839AE1918323EF31E0338322839C
:101E600015821482118610861386128617821682B6
:101E7000ECE8F6E0808396E291832BEF31E0338348
:101E80002283158214821186108613861286178289
:101E90001682E0E8F6E01082118222E032E033831D
:101EA0002283158214821186108613861286178269
:101EB0001682E4E7F6E08083118288E092E0938363
:101EC00082831582148211861086138612861782E9
:101ED00016820895789484B5826084BD84B581604B
:101EE00084BD85B5826085BD85B5816085BD8091E5
:101EF0006E00816080936E0010928100809181005D
:101F00008260809381008091810081608093810054
:101F1000809180008160809380008091B100846016
:101F20008093B1008091B00081608093B000809177
:101F30007A00846080937A0080917A008260809336
:101F40007A0080917A00816080937A0080917A0093
:101F5000806880937A001092C10010925F05109201
:101F60005E051092DD041092DC040E94640982E494
:101F700091E09093DB048093DA0483E491E0909302
:101F8000D9048093D804E0919005F0919105D2E0B6
:101F9000D083E0918C05F0918D051082E0918E0543
:101FA000F0918F058FEC808310929805E091940555
:101FB000F0919505C6E0C083E0919205F0919305FC
:101FC000808180618083E0919205F091930580810A
:101FD00088608083E0919205F0919305808180680C
:101FE0008083E0919205F091930580818F7D8083BD
:101FF00064EF71E080E090E00E94F3008EE092E0F8
:102000000E946D0B0E9431020E9431020E94310237
:1020100080E895E00E943602E0919205F0919305E8
:1020200080818F7E8083E0919205F091930580817D
:10203000877F8083E0919205F091930580818F776F
:102040008083E0919205F091930580818F7D80835C
:1020500080919A0580939905E0919005F091910502
:10206000D083E0918C05F0918D051082E0918E0572
:10207000F0918F0580E1808310929805E09194059E
:10208000F0919505C083E0919205F09193058081D0
:1020900080618083E0919205F09193058081886052
:1020A0008083E0919205F091930580818068808320
:1020B000E0919205F091930580818F7D80838FE47C
:1020C0009CE09093B5068093B4061092B7061092E8
:1020D000B60682E49CE090939D0680939C06109245
:1020E0009F0610929E0682E391E090939106809362
:1020F0009006109293061092920686E391E09093D8
:1021000085068093840610928706109286068BE3DC
:1021100091E0909379068093780610927B06109256
:102120007A06C0EED4E001E098E6F92E1AE02FE539
:10213000422E22E0522E30E0232E30E0332E0E9439
:1021400025016093250570932605809327059093BC
:1021500028058090210590902205A0902305B0903D
:102160002405681979098A099B09683E734081052D
:10217000910508F4E1C18091BC069091BD060093E1
:10218000DF04F092DE041092DD041092DC0466E0BD
:1021900070E00E94120B8091BC069091BD060E94D7
:1021A000280A8091BC069091BD060E947A0B80910E
:1021B000BC069091BD06DC01ED91FC910284F38593
:1021C000E02D0995982F92959F708F70919F800DAB
:1021D000112490E09093200580931F058091BC0608
:1021E0009091BD060093DF04F092DE041092DD04AE
:1021F0001092DC0465E070E00E94120B8091BC0636
:102200009091BD060E94280A8091BC069091BD065F
:102210000E947A0B8091BC069091BD06DC01ED9185
:10222000FC910284F385E02D0995982F991F992739
:10223000991F90931E05982F929597708F70919F7C
:10224000800D112490E090931D0580931C058091D2
:10225000BC069091BD060093DF04F092DE0410925C
:10226000DD041092DC0464E070E00E94120B8091A7
:10227000BC069091BD060E94280A8091BC069091F0
:10228000BD060E947A0B8091BC069091BD06DC01D0
:10229000ED91FC910284F385E02D0995982F92959C
:1022A0009F708F70919F800D112490E090931B057B
:1022B00080931A058091BC069091BD060093DF04BF
:1022C000F092DE041092DD041092DC0462E070E013
:1022D0000E94120B8091BC069091BD060E94280AB4
:1022E0008091BC069091BD060E947A0B8091BC063D
:1022F0009091BD06DC01ED91FC910284F385E02D07
:10230000099541E09C012074332786FF40E040930B
:102310001905482F42954F70582F5F70232B09F4F1
:1023200076C185FB992790F9909318054170852F08
:10233000419F800D112490E090931705809316051E
:102340008091BC069091BD060093DF04F092DE04FC
:102350001092DD041092DC0461E070E00E94120B28
:102360008091BC069091BD060E94280A8091BC060F
:102370009091BD060E947A0B8091BC069091BD069B
:10238000DC01ED91FC910284F385E02D0995982FF5
:1023900092959F708F70919F800D112490E0909383
:1023A0001505809314058091BC069091BD0600939D
:1023B000DF04F092DE041092DD041092DC0470E081
:1023C00060E00E94120B8091BC069091BD060E94B5
:1023D000280A8091BC069091BD060E947A0B8091DC
:1023E000BC069091BD06DC01ED91FC910284F38561
:1023F000E02D0995E82E8091250590912605A09164
:102400002705B09128058093210590932205A0937C
:102410002305B09324058091120590911305892B13
:1024200009F08AC0D0901405C0901505B09016052B
:10243000A090170590901A0580901B0570901C05C0
:1024400060901D0580911F059091200528E2FE01F6
:1024500011922A95E9F78053984F9F938F938AE1C1
:1024600092E09F938F93DF93CF930E94841380EE2B
:1024700094E00E946D0B0E94190B6F927F9288E28C
:1024800092E09F938F93DF93CF930E94841380EE0B
:1024900094E00E946D0B0E94190B8F929F9287E32C
:1024A00092E09F938F93DF93CF930E94841380EEEB
:1024B00094E00E946D0B0E94190BAF92BF9284E4CE
:1024C00092E09F938F93DF93CF930E94841380EECB
:1024D00094E00E946D0B0E94190BCF92DF9282E56F
:1024E00092E09F938F93DF93CF930E94841380EEAB
:1024F00094E00E946D0B0E94190B8E2D82958F70B7
:10250000FE2DFF70EF2E819FE00C11241F92EF92A1
:102510005F924F92DF93CF930E948413ADB7BEB703
:1025200094960FB6F894BEBF0FBEADBF80EE94E098
:102530000E946D0B0E94190B6EE170E080E090E04C
:102540000E94F30080E895E00E94A2011816190687
:102550000CF06FC06AE070E080E090E00E94F30051
:1025600080E895E00E948001E82EB5E68B13EACF63
:1025700080E895E00E94A201069724F3E092080506
:1025800089E0C82E85E0D82E80E895E00E94800181
:10259000F60181936F018FE095E08E179F07A1F7F9
:1025A00010920F0580910C058F3F61F680910D050B
:1025B0008F3F41F680910E058F3F21F690910A05DD
:1025C00020910905ECE7F1E0A191B191109709F490
:1025D000B9CF8C912813F8CF11968C91119798133D
:1025E000F3CF40910B0550E070E060E041305105C1
:1025F0006105710571F41496ED91FC911597309772
:1026000009F4A0CF16968D919C9109959BCF4370AC
:102610008ECE452B462B472B09F094CF1896ED9183
:10262000FC911997309709F48DCF1A968D919C9152
:10263000ECCF2114310409F482CD0E94AE0188232D
:1026400009F471CD0E9400006ECDA1E21A2EAA1BE2
:10265000BB1BFD010DC0AA1FBB1FEE1FFF1FA21752
:10266000B307E407F50720F0A21BB30BE40BF50B4F
:10267000661F771F881F991F1A9469F760957095D8
:10268000809590959B01AC01BD01CF0108952F92DB
:102690003F924F925F926F927F928F929F92AF92F2
:1026A000BF92CF92DF92EF92FF920F931F93CF933F
:1026B000DF93CDB7DEB7CA1BDB0B0FB6F894DEBFD6
:1026C0000FBECDBF09942A88398848885F846E84FC
:1026D0007D848C849B84AA84B984C884DF80EE8046
:1026E000FD800C811B81AA81B981CE0FD11D0FB64F
:1026F000F894DEBF0FBECDBFED010895EE0FFF1FB2
:102700000590F491E02D0994AEE0B0E0EAE8F3E141
:102710000C9455130D891E8986E08C831A830983D6
:102720008FEF9FE79E838D83AE01475E5F4F6F897A
:10273000788DCE0101960E94A7132F813885020F54
:10274000131FF80110822E96E4E00C947113ABE095
:10275000B0E0EDEAF3E10C9447137C013B018A0100
:10276000FC0117821682838181FFC8C1CE010196C8
:102770005C01F7019381F30193FD859193FF8191B2
:102780003F01882309F453C1853239F493FD8591C3
:1027900093FF81913F01853229F4B70190E00E94B7
:1027A0009715E7CF912C212C312CFFE1F31538F050
:1027B0008B3211F190F4803209F1833229F137FC28
:1027C0003CC020ED280F2A3050F536FE20C08AE0AC
:1027D000989E200D1124922E06C08D3291F08033E8
:1027E00071F7689430F8F30193FD859193FF81911F
:1027F0003F018111DACF21C0689431F8689432F832
:10280000F2CF689433F8EFCF689434F8ECCFEAE075
:102810002E9E200D1124222E689435F8E4CF8E329E
:1028200029F436FC04C1689436F8DDCF8C3619F4EF
:10283000689437F8D8CF8836B1F2982F9F7D955499
:102840009330E0F08336A1F18337C1F1833509F08D
:1028500063C02801F2E04F0E511CF801C080D18006
:10286000692D70E036FC02C06FEF7FEFC6010E9459
:1028700081154C01689437F882010AC00C5F1F4F24
:10288000FFE3F98388248394912C6501E89437F859
:1028900033FE2DC0522C8114910471F5552009F49A
:1028A00068CFB70180E290E00E9497155A94F6CF66
:1028B000F801808189830E5F1F4FE4CF2801F2E089
:1028C0004F0E511CF801C080D180692D70E036FC9C
:1028D00002C06FEF7FEFC6010E948C154C01820190
:1028E000D5CFB70180E290E00E9497152A94281472
:1028F000190409F0B0F7CECFF60137FC859137FE09
:1029000081916F01B70190E00E94971551105A9480
:10291000F1E08F1A9108BFCF843619F0893609F09B
:1029200077C0F80137FE6BC060817181828193812D
:102930000C5F1F4FF32DFF763F2E97FF09C0909538
:102940008095709561957F4F8F4F9F4F689437F8B2
:102950002AE030E0A5010E94C715C82ECA188C2CA9
:10296000432C36FE0CC0E89440F8C91440F434FE01
:1029700005C032FC03C0F32DFE7E4F2E892C44FE91
:1029800095C0FE01EC0DF11D8081803309F087C0F8
:10299000242D297E422E842D8870582E43FC95C00C
:1029A00040FE8FC09C2C821418F42C0C922C98188A
:1029B00044FE91C0B70180E390E00E94971542FE6B
:1029C00009C088E790E041FE02C088E590E0B701C9
:1029D0000E949715C91408F48AC0CA94D12C9FEF9D
:1029E000C91AD90ACA0CDB1CF60182916F01B70122
:1029F00090E00E949715AC14BD04B1F74FCF6081F1
:102A00007181072E000C880B990B0E5F1F4F92CF20
:102A1000D32CE894D4F82AE030E0853739F1232D1F
:102A2000297FD22E8F3601F148F48835A9F0F701BD
:102A3000868197812B96E2E10C946313803749F0ED
:102A40008837A9F7D4FE02C06894D2F820E130E0BC
:102A50000DC06894D4F8F6CF34FE03C0822F866090
:102A6000D82E20E132E002C028E030E0F801D7FEA5
:102A70000FC060817181828193810C5F1F4FA5011E
:102A80000E94C715C82ECA183D2CE89437F867CFA6
:102A90006081718190E080E00E5F1F4FF0CF42FCBB
:102AA00002C0839478CF8394839475CF842D8678E5
:102AB00009F471CFF6CFB70180E290E00E9497153C
:102AC00083948214C0F3512C73CF522C5818821463
:102AD00008F46ECFF8CF842D867809F47BCF8BE293
:102AE00041FE80E247FC8DE2B70190E071CFB70173
:102AF00080E390E00E9497159A946CCF8FEF9FEF40
:102B000099CFFC010590615070400110D8F7809575
:102B100090958E0F9F1F0895FC01615070400190A9
:102B20000110D8F7809590958E0F9F1F08950F93F1
:102B30001F93CF93DF93182F092FEB018B8181FD1A
:102B400009C01FEF0FEF812F902FDF91CF911F91C1
:102B50000F91089582FF14C02E813F818C819D8149
:102B6000281739073CF4E881F981CF010196998350
:102B7000888310838E819F8101969F838E83E3CF0C
:102B8000E885F985812F0995892BA1F3DACFFA0120
:102B9000AA27283051F1203181F1E8946F936E7F9C
:102BA0006E5F7F4F8F4F9F4FAF4FB1E03ED0B4E08D
:102BB0003CD0670F781F891F9A1FA11D680F791FCE
:102BC0008A1F911DA11D6A0F711D811D911DA11DDF
:102BD00020D009F468943F912AE0269F11243019EF
:102BE000305D3193DEF6CF010895462F4770405D8A
:102BF0004193B3E00FD0C9F7F6CF462F4F70405D39
:102C00004A3318F0495D31FD4052419302D0A9F793
:102C1000EACFB4E0A6959795879577956795BA958D
:102C2000C9F700976105710508959B01AC010A2E53
:102C300006945795479537952795BA95C9F7620F2A
:102C4000731F841F951FA01D0895F894FFCF535044
:102C5000315F6800000000005350315F6D000000DC
:102C600000005350325F6800000000005350325F94
:102C70006D00000000005350335F6800000000004A
:102C80005350335F6D0000000000535031456E64B7
:102C90005F680000535031456E645F6D0000535013
:102CA00032456E645F680000535032456E645F6D5C
:102CB0000000535033456E645F6800005350334545
:102CC0006E645F6D0000FFFFFFFFB006A40698066C
:102CD0008C06800674060000010002000300040058
:102CE000050006000700080009000A000B000C00A0
:102CF00000000000E401440171013602A2018001DC
:102D0000940100000000C70744016D073C09000062
:102D10000000F909CC090F0B3101C509B209A3095B
:102D20006E332E76616C3D0025732E76616C3D25E9
:102D300064006253657474696E6700624261636B1C
:102D400000625570646174650062744C616D70005E
:102D5000706167653000706167653100626175643C
:102D60003D31313532303000796561722E747874BE
:102D70003D22256422006D6F6E74682E7478743D58
:102D800022256422006461792E7478743D222564C2
:102D90002200686F75722E7478743D2225642200BB
:102DA0006D696E2E7478743D22256422007365630C
:0A2DB0002E7478743D222564220081
:107E0000112484B714BE81FFF0D085E080938100F7
:107E100082E08093C00088E18093C10086E0809377
:107E2000C20080E18093C4008EE0C9D0259A86E02C
:107E300020E33CEF91E0309385002093840096BBD3
:107E4000B09BFECF1D9AA8958150A9F7CC24DD24C4
:107E500088248394B5E0AB2EA1E19A2EF3E0BF2EE7
:107E6000A2D0813461F49FD0082FAFD0023811F036
:107E7000013811F484E001C083E08DD089C08234E0
:107E800011F484E103C0853419F485E0A6D080C0E4
:107E9000853579F488D0E82EFF2485D0082F10E0AE
:107EA000102F00270E291F29000F111F8ED06801E7
:107EB0006FC0863521F484E090D080E0DECF843638
:107EC00009F040C070D06FD0082F6DD080E0C81688
:107ED00080E7D80618F4F601B7BEE895C0E0D1E017
:107EE00062D089930C17E1F7F0E0CF16F0E7DF06D8
:107EF00018F0F601B7BEE89568D007B600FCFDCFD4
:107F0000A601A0E0B1E02C9130E011968C91119780
:107F100090E0982F8827822B932B1296FA010C0160
:107F200087BEE89511244E5F5F4FF1E0A038BF0790
:107F300051F7F601A7BEE89507B600FCFDCF97BE46
:107F4000E89526C08437B1F42ED02DD0F82E2BD052
:107F50003CD0F601EF2C8F010F5F1F4F84911BD097
:107F6000EA94F801C1F70894C11CD11CFA94CF0C13
:107F7000D11C0EC0853739F428D08EE10CD085E9AC
:107F80000AD08FE07ACF813511F488E018D01DD067
:107F900080E101D065CF982F8091C00085FFFCCF94
:107FA0009093C60008958091C00087FFFCCF809118
:107FB000C00084FD01C0A8958091C6000895E0E648
:107FC000F0E098E1908380830895EDDF803219F02E
:107FD00088E0F5DFFFCF84E1DECF1F93182FE3DFCA
:107FE0001150E9F7F2DF1F91089580E0E8DFEE27F6
:047FF000FF270994CA
:027FFE00040479
:00000001FF
