:020000040000FA
:100000000C9458000C9480000C9480000C94880987
:100010000C9488090C9488090C9480000C9480003E
:100020000C9480000C9480000C9480000C94800050
:100030000C9480000C9480000C9480000C94800040
:100040000C94E6080C9480000C9456090C9430092A
:100050000C9480000C9480000C9480000C94800020
:100060000C9480000C948000000000002500280003
:100070002B00040404040404040402020202020229
:10008000030303030303010204081020408001025C
:1000900004081020010204081020000000080002DB
:1000A00001000003040700000000000000009209A6
:1000B00011241FBECFEFD8E0DEBFCDBF24E0AAE3FE
:1000C000B1E001C01D92A735B207E1F711E0A0E051
:1000D000B1E0E8ECF4E102C005900D92AA33B1075B
:1000E000D9F710E0C8E5D0E004C02197FE010E94D6
:1000F0005C0AC735D107C9F70E940E0A0C94620A40
:100100000C94000090E0FC01E656FF4F2491FC01A6
:10011000EA57FF4F3491FC01EE58FF4FE491EE2374
:10012000C9F0222339F0233001F1A8F4213019F16C
:10013000223029F1F0E0EE0FFF1FE859FF4FA591A3
:10014000B4918FB7F894EC91611126C030953E239D
:100150003C938FBF08952730A9F02830C9F0243090
:1001600049F7809180008F7D03C0809180008F7758
:1001700080938000DFCF84B58F7784BDDBCF84B5DB
:100180008F7DFBCF8091B0008F778093B000D2CF6E
:100190008091B0008F7DF9CF3E2BDACFAF92BF9226
:1001A000CF92DF92EF92FF920F931F93CF93DF9343
:1001B0006C017B018B01040F151FEB015E01AE1872
:1001C000BF08C017D10759F06991D601ED91FC9194
:1001D0000190F081E02DC6010995892B79F7C501C1
:1001E000DF91CF911F910F91FF90EF90DF90CF9013
:1001F000BF90AF900895FC01538D448D252F30E0C2
:10020000842F90E0821B930B541710F0CF96089523
:1002100001970895FC01918D828D981761F0A28D50
:10022000AE0FBF2FB11D5D968C91928D9F5F9F7316
:10023000928F90E008958FEF9FEF0895FC01918DCC
:10024000828D981731F0828DE80FF11D858D90E039
:1002500008958FEF9FEF0895FC01918D228D892FD6
:1002600090E0805C9F4F821B91098F7399270895BE
:100270008BE493E00E942C0121E0892B09F420E01B
:10028000822F089580E090E0892B29F00E943801A8
:1002900081110C9400000895FC01A48DA80FB92FC2
:1002A000B11DA35ABF4F2C91848D90E001968F739E
:1002B0009927848FA689B7892C93A089B1898C91BD
:1002C000837080648C93938D848D981306C002880C
:1002D000F389E02D80818F7D80830895EF92FF92D6
:1002E0000F931F93CF93DF93EC0181E0888F9B8D59
:1002F0008C8D98131AC0E889F989808185FF15C013
:100300009FB7F894EE89FF896083E889F989808135
:100310008370806480839FBF81E090E0DF91CF9104
:100320001F910F91FF90EF900895F62E0B8D10E026
:100330000F5F1F4F0F731127E02E8C8D8E110CC095
:100340000FB607FCFACFE889F989808185FFF5CFE0
:10035000CE010E944C01F1CFEB8DEC0FFD2FF11D72
:10036000E35AFF4FF0829FB7F8940B8FEA89FB891D
:1003700080818062CFCFCF93DF93EC01888D88237B
:10038000B9F0AA89BB89E889F9898C9185FD03C0F8
:10039000808186FD0DC00FB607FCF7CF8C9185FFDD
:1003A000F2CF808185FFEDCFCE010E944C01E9CFD5
:1003B000DF91CF91089520913A01211109C021E0E8
:1003C00020933A013091E8032091E9033CBD2DBD13
:1003D00060E0FC0184810C94820061E0FC01848176
:1003E0000E94820080913A01811110923A01089591
:1003F0008EBD00000DB407FEFDCF8EB508958FEFC2
:100400000C94F8010F931F93CF93DF938C012FB7B8
:10041000F8948091470390914803A0914903B091CB
:100420004A032FBFEC010E94FF018F3FB1F02FB7AD
:10043000F8948091470390914803A0914903B091AB
:100440004A032FBF8C1B9D0B8017910760F380E040
:10045000DF91CF911F910F91089581E0F9CFCF9255
:10046000DF92EF92FF920F931F93CF93DF93EC01F4
:10047000162F69017A018E81882389F08F819885F2
:100480009C012F5F3F4F38872F838230924018F4B2
:100490000E94FF01F3CFCE010E94ED011E82CE012A
:1004A0000E94DB018CE291E00E940202812F8064B5
:1004B0000E94F80108E110E0D701C601002E04C037
:1004C000B695A795979587950A94D2F70E94F8015B
:1004D00008501109083F8FEF180771F78FEF0E943E
:1004E000F80110E00E94FF018A8787FF04C01F3FC8
:1004F00011F01F5FF7CFDF91CF911F910F91FF9008
:10050000EF90DF90CF900895CF92DF92EF92FF921D
:100510000F93CF93DF93EC01690182E141155105FF
:100520006105710599F08B85833039F089E0440FBE
:10053000551F661F771F8A95D1F79A01AB0168E1B5
:10054000CE010E942F02882319F084E08D832DC0F4
:100550008EEF0E94F80176018EEFD81AF701819193
:100560007F010E94F801EC14FD04C1F78FEF0E9497
:10057000F8018FEF0E94F8010E94FF018A878F71B6
:10058000853071F4011116C0CE010E94ED0181E0A9
:10059000DF91CF910F91FF90EF90DF90CF90089572
:1005A00081E18D83CE010E94ED01CE010E94ED011B
:1005B00080E0EECF88E592E00E940202811102C045
:1005C00085E1C4CF20E030E0A9016DE0CE010E94BA
:1005D0002F02882311F084E1B9CF0E94FF0181111D
:1005E000FACFD2CF0F9340913C0150913D016091E1
:1005F0003E0170913F01411551056105710589F07A
:10060000082F20E431E090E080E00E9484028823FB
:1006100049F010923C0110923D0110923E0110925F
:100620003F0181E00F9108950F93CF93C82F8091E0
:100630003B01811105C0C1E08C2FCF910F9108952E
:1006400040910001509101016091020170910301FC
:100650000C2F20E431E090E080E00E9484028111C0
:1006600002C0C0E0E9CFCC2331F381E00E94F20266
:100670008823B9F310923B01DFCFAF92BF92CF92A4
:10068000DF92EF92FF921F93CF93DF936B017C0178
:10069000142F8091000190910101A0910201B0916D
:1006A00003018C159D05AE05BF0509F4BFC081E0AF
:1006B0000E9414038823E1F1809106008823A1F0B1
:1006C0008091000090910100A0910200B091030080
:1006D000C816D906EA06FB0639F480910700909106
:1006E0000800892B09F461C0C0920000D09201007B
:1006F000E0920200F092030080910B00A7019601A6
:10070000833039F099E0220F331F441F551F9A950B
:10071000D1F761E190E080E00E942F02882391F000
:1007200083E08093050090E080E00E94ED0180E08E
:10073000DF91CF911F91FF90EF90DF90CF90BF900E
:10074000AF9008952FB7F894809147039091480394
:10075000A0914903B0914A032FBFEC010E94FF0111
:1007600080930A008F3FC1F42FB7F894809147031C
:1007700090914803A0914903B0914A032FBF8C1B6D
:100780009D0B8D32914050F38FE08093050090E0F7
:1007900080E00E94ED01C7CF8E3FC1F510920800A6
:1007A0001092070081E080930600C0E4D1E080E46D
:1007B000A82E83E0B82E0E94FF018993AC16BD06D7
:1007C000D1F780910700909108009E5F90930800F8
:1007D0008093070020910900222319F0811592408F
:1007E000E8F0809106008823C9F08091070090917D
:1007F00008009C012F5F3F4F3093080020930700B3
:100800008230924028F40E94FF01EFCF8DE0BDCFEF
:1008100090E080E00E94ED0110920600C09200017D
:10082000D0920101E0920201F092030140913B015C
:10083000412B40933B0181E07BCF4F925F926F92BF
:100840007F928F929F92AF92BF92CF92DF92EF9260
:10085000FF920F931F93CF93DF93EC01423051052A
:100860006105710590F480E0DF91CF911F910F91A8
:10087000FF90EF90DF90CF90BF90AF909F908F90C0
:100880007F906F905F904F90089589859A85AB8592
:10089000BC850196A11DB11D84179507A607B70752
:1008A00010F3CB88DC88ED88FE888F89803109F0D1
:1008B00042C0BB27A72F962F852F480159012A0137
:1008C0003B01C80ED91EEA1EFB1E809100019091CB
:1008D0000101A0910201B0910301C816D906EA06F0
:1008E000FB0699F58F898031C1F5B301A201552727
:1008F00066277727440F551F405C5E4FFA019182AF
:10090000808280913B01816080933B018A898230A3
:1009100080F08D819E81AF81B8858C0D9D1DAE1DAF
:10092000BF1D80933C0190933D01A0933E01B09385
:100930003F0181E099CFDB01CA01E7E0B695A795B9
:1009400097958795EA95D1F7B8CF40E0C701B601F2
:100950000E943D038111C6CF86CFB301A2014F771C
:10096000552766277727440F551F440F551F405CB6
:100970005E4FFA0180829182A282B382C2CF8F92AF
:100980009F92AF92BF92CF92DF92EF92FF920F931E
:100990001F93CF93DF93FC0181859285A385B48556
:1009A0000196A11DB11D84179507A607B70770F41E
:1009B00080E0DF91CF911F910F91FF90EF90DF903A
:1009C000CF90BF90AF909F908F9008958388948828
:1009D000A588B6888789803189F5BB27A72F962FF0
:1009E000852FE9016A017B018F01BC01CD01680DF2
:1009F000791D8A1D9B1D8090000190900101A0909F
:100A00000201B090030186169706A806B90601F503
:100A1000F8018789803111F5DD24EE24FF24F601E9
:100A2000EE0FFF1FE05CFE4F80819181B0E0A0E0FF
:100A300088839983AA83BB8381E0BBCFDB01CA0192
:100A4000C7E0B695A79597958795CA95D1F7C9CF71
:100A500040E00E943D038111DBCFAACFE894C7F8A4
:100A6000DD24EE24FF24F601EE0FFF1FEE0FFF1F23
:100A7000E05CFE4F80819181A281B381BF70D8CFAD
:100A80008F929F92AF92BF92CF92DF92EF92FF929E
:100A90000F931F93CF93DF93EC018D8181110EC0D3
:100AA00080E0DF91CF911F910F91FF90EF90DF9049
:100AB000CF90BF90AF909F908F9008950B891C8925
:100AC0002D893E89041715072607370748F34A0181
:100AD0005B01823031F48A869B86AC86BD8681E0DC
:100AE000E0CF81149104A104B10449F41E821F8255
:100AF000188619861A861B861C861D86F0CF0A85E5
:100B00001B852C853D85EB8DFC8D858590E00996B8
:100B1000B901A8014150510961097109082E04C0A9
:100B200076956795579547950A94D2F775016401B4
:100B3000E1E0CE1AD108E108F10804C0F694E79488
:100B4000D794C7948A95D2F7C416D506E606F70659
:100B500020F0012B022B032B11F58F89988DA98D85
:100B6000BA8D8E839F83A887B9878E010A5F1F4F36
:100B7000C114D104E104F10409F4ADCF4E815F81C9
:100B80006885798598018B8D9C8D0E94BF0491E0CA
:100B9000C91AD108E108F1088111EACF81CFC41A3E
:100BA000D50AE60AF70AE1CF3F924F925F926F9221
:100BB0007F928F929F92AF92BF92CF92DF92EF92ED
:100BC000FF920F931F93CF93DF93CDB7DEB72C9790
:100BD0000FB6F894DEBF0FBECDBF5C01DC015B96A3
:100BE0008D909C905C9716964D905D906D907C904A
:100BF0001997411451046104710409F468C0BFEFEE
:100C00004B1A5B0A6B0A7B0A312CF40181859285B1
:100C1000A385B4859C01AD012F5F3F4F4F4F5F4FC0
:100C200029873A874B875C87730162011D821E8288
:100C30001F821886F40181859285A385B4852D8154
:100C40003E814F815885281739074A075B0708F00E
:100C500056C089859A85AB85BC858C159D05AE05EA
:100C6000BF0550F482E0C82ED12CE12CF12C92E08B
:100C7000492E512C612C712C9E012F5F3F4FB701E3
:100C8000A601C4010E94BF048823C9F189819A8109
:100C9000AB81BC81892B8A2B8B2B09F12601370173
:100CA0009FEF491A590A690A790A2D813E814F81BD
:100CB00058852F5F3F4F4F4F5F4F2D833E834F83AC
:100CC00058873FEFC31AD30AE30AF30AB3CFF401FC
:100CD00040805180628073803324339496CFC41453
:100CE000D504E604F70409F70FEF1FEF2FEF3FE0FD
:100CF000B701A601C4010E941D04811119C080E042
:100D00002C960FB6F894DEBF0FBECDBFDF91CF910A
:100D10001F910F91FF90EF90DF90CF90BF90AF9019
:100D20009F908F907F906F905F904F903F9008952D
:100D3000D50116964D915D916D917C911997411554
:100D400051056105710539F097018601C4010E94C2
:100D50001D048823A1F2D5011696CD92DD92ED9265
:100D6000FC921997332051F0D701C6010196A11DBD
:100D7000B11DF40180839183A283B383F501878938
:100D8000908DA18DB28D892B8A2B8B2B39F4848188
:100D9000C78AD08EE18EF28E80688483F5018481CB
:100DA0008062848381E0ACCF1F93CF93DF93EC010B
:100DB000162F8C8187FF2AC06E857F858889998947
:100DC00041E00E943D03882361F1EA8980E2E89FC7
:100DD000F0011124E05CFE4F309719F18D818230D3
:100DE00040F48B899C89AD89BE89848F958FA68FAD
:100DF000B78F8F89988D938F828F8F89988DA98DCA
:100E0000BA8DB58BA48B8C818F778C83111103C025
:100E10008C818F7E8C83812FDF91CF911F910C94D9
:100E2000140380E0DF91CF911F9108951F93CF931A
:100E3000DF93EC018D81813031F090E080E0DF9133
:100E4000CF911F9108958C8181FFF7CF82FD1BC048
:100E500090E080E00E94DB010E94FF01182F90E0EB
:100E600080E00E94ED011F3F41F78C8185FF1EC08D
:100E70008D81882321F060E0CE010E94D4068C8110
:100E80008F7D8C83DACF4B895C896D897E898A85D9
:100E90009B85AC85BD8584179507A607B707C1F26A
:100EA000CE010E9440058111D3CFC7CF40913C01B4
:100EB00050913D0160913E0170913F01452B462BC1
:100EC000472B21F080E00E94F202B7CF80618C8333
:100ED0002A853B85317080E092E0821B930BAFCF77
:100EE0009F92AF92BF92CF92DF92EF92FF920F93B9
:100EF0001F93CF93DF9300D000D01F92CDB7DEB702
:100F00008C016D83DC0115968C911597813009F069
:100F1000B9C014968C9181FFB5C082FD9FC0D801E5
:100F20005B96ED91FC915C971A96AD90BD90CD903B
:100F3000DC901D9794809A94B601A50189E076957E
:100F40006795579547958A95D1F79422B1E0BB22D2
:100F5000992009F49FC0D8015B96ED91FC915C97B4
:100F60001696CD90DD90ED90FC901997B2E0CB1ADB
:100F7000D108E108F108858504C0CC0CDD1CEE1C0D
:100F8000FF1C8A95D2F74685578560897189C40E02
:100F9000D51EE61EF71EC90CD11CE11CF11CA114C4
:100FA000B10409F00AC1F80142855385648575854D
:100FB00083899489A589B689481759076A077B07E9
:100FC00008F4FBC081E00E941403882309F45AC08E
:100FD000C0920001D0920101E0920201F09203015F
:100FE00080913B01816080933B01F501E05CFE4F05
:100FF0008D818083F80182859385A485B5850196CE
:10100000A11DB11D82879387A487B5874389548921
:1010100065897689481759076A077B0738F4248160
:10102000838B948BA58BB68B20682483D801149670
:101030008C9183FD9FC081E090E00F900F900F9006
:101040000F900F90DF91CF911F910F91FF90EF9034
:10105000DF90CF90BF90AF909F900895F8014389A3
:1010600054896589768982859385A485B5854817D5
:1010700059076A077B0709F452CFC8010E9440054F
:1010800081114DCF81E090E0D80113969C938E930F
:10109000129749C0D80116964D915D916D917C9142
:1010A0001997A114B10409F071C0411551056105EA
:1010B000710589F557968D919D910D90BC91A02D4C
:1010C0000097A105B10509F04FC0C8010E94D405E1
:1010D0008823C1F2D8015B96ED91FC915C9716963E
:1010E000CD90DD90ED90FC901997B2E0CB1AD1082D
:1010F000E108F108858504C0CC0CDD1CEE1CFF1C4A
:101100008A95D2F74685578560897189C40ED51EA8
:10111000E61EF71E48CF9E012F5F3F4FCF010E9472
:10112000BF04811103C090E080E087CF89819A815C
:10113000AB81BC81F801238D348DF901278948EFFB
:101140005FEF60E070E0203121F048EF5FEF6FEF7C
:101150007FE084179507A607B70730F0C8010E9403
:10116000D4058111F8CE8ECFF80186839783A087AE
:10117000B187F1CEF8018581882309F483CF61E03E
:10118000C8010E94D406811156CF7CCF6A017B0131
:10119000B2E0CB1AD108E108F108858504C0CC0C77
:1011A000DD1CEE1CFF1C8A95D2F7468557856089A9
:1011B0007189C40ED51EE61EF71E41E0C701B601B7
:1011C0000E943D03811111CF5DCF08951F920F92B0
:1011D0000FB60F9211242F933F938F939F93AF934A
:1011E000BF938091470390914803A0914903B09128
:1011F0004A033091460323E0230F2D3758F501961B
:10120000A11DB11D2093460380934703909348038B
:10121000A0934903B0934A03809142039091430302
:10122000A0914403B09145030196A11DB11D809387
:10123000420390934303A0934403B0934503BF91AB
:10124000AF919F918F913F912F910F900FBE0F9073
:101250001F90189526E8230F0296A11DB11DD2CF2D
:101260001F920F920FB60F9211242F933F934F931B
:101270005F936F937F938F939F93AF93BF93EF93FE
:10128000FF938BE493E00E944C01FF91EF91BF919B
:10129000AF919F918F917F916F915F914F913F910E
:1012A0002F910F900FBE0F901F9018951F920F92C5
:1012B0000FB60F9211242F938F939F93EF93FF9369
:1012C000E0915B03F0915C038081E0916103F09118
:1012D000620382FD1BC09081809164038F5F8F73D6
:1012E00020916503821741F0E0916403F0E0E55B33
:1012F000FC4F958F80936403FF91EF919F918F91A5
:101300002F910F900FBE0F901F9018958081F4CFF2
:101310001F920F920FB60F9211240F900FBE0F90D5
:101320001F901895EBE4F3E01382128288EE93E0AD
:10133000A0E0B0E084839583A683B78388E091E042
:101340009183808385EC90E09587848784EC90E09E
:101350009787868780EC90E0918B808B81EC90E082
:10136000938B828B82EC90E0958B848B86EC90E063
:10137000978B868B118E128E138E148EE8EEF3E00F
:1013800080E580831182EAEEF3E0158216821186F1
:10139000138682E090E0A0E0B0E084879587A6877E
:1013A000B78713A215A614A68AE191E093A782A796
:1013B00017A6EBE4F4E0108287E0818382E291E0FB
:1013C0009383828315821482118610861386128677
:1013D00017821682EFE3F4E081E0808395E1918348
:1013E0002BE231E03383228315821482118610862A
:1013F0001386128617821682E3E3F4E080838AE183
:10140000818381E391E09383828315821482118624
:10141000108613861286178216820895789484B5F2
:10142000826084BD84B5816084BD85B5826085BDE0
:1014300085B5816085BD80916E00816080936E006E
:101440001092810080918100826080938100809160
:101450008100816080938100809180008160809311
:1014600080008091B10084608093B1008091B000D1
:1014700081608093B00080917A00846080937A00CC
:1014800080917A00826080937A0080917A008160F6
:1014900080937A0080917A00806880937A0010921D
:1014A000C100C0E0D0E02097F1F30E94380188230A
:1014B000D1F30E940000F7CFEE0FFF1F0590F491CB
:1014C000E02D0994F894FFCFFFFFFFFF000000001C
:1014D0006E01CE00FB00BB012C010A011E010000C1
:1014E00000007007CE001607E50862536574746942
:1014F0006E6700624261636B00625570646174657F
:021500000000E9
:107E0000112484B714BE81FFF0D085E080938100F7
:107E100082E08093C00088E18093C10086E0809377
:107E2000C20080E18093C4008EE0C9D0259A86E02C
:107E300020E33CEF91E0309385002093840096BBD3
:107E4000B09BFECF1D9AA8958150A9F7CC24DD24C4
:107E500088248394B5E0AB2EA1E19A2EF3E0BF2EE7
:107E6000A2D0813461F49FD0082FAFD0023811F036
:107E7000013811F484E001C083E08DD089C08234E0
:107E800011F484E103C0853419F485E0A6D080C0E4
:107E9000853579F488D0E82EFF2485D0082F10E0AE
:107EA000102F00270E291F29000F111F8ED06801E7
:107EB0006FC0863521F484E090D080E0DECF843638
:107EC00009F040C070D06FD0082F6DD080E0C81688
:107ED00080E7D80618F4F601B7BEE895C0E0D1E017
:107EE00062D089930C17E1F7F0E0CF16F0E7DF06D8
:107EF00018F0F601B7BEE89568D007B600FCFDCFD4
:107F0000A601A0E0B1E02C9130E011968C91119780
:107F100090E0982F8827822B932B1296FA010C0160
:107F200087BEE89511244E5F5F4FF1E0A038BF0790
:107F300051F7F601A7BEE89507B600FCFDCF97BE46
:107F4000E89526C08437B1F42ED02DD0F82E2BD052
:107F50003CD0F601EF2C8F010F5F1F4F84911BD097
:107F6000EA94F801C1F70894C11CD11CFA94CF0C13
:107F7000D11C0EC0853739F428D08EE10CD085E9AC
:107F80000AD08FE07ACF813511F488E018D01DD067
:107F900080E101D065CF982F8091C00085FFFCCF94
:107FA0009093C60008958091C00087FFFCCF809118
:107FB000C00084FD01C0A8958091C6000895E0E648
:107FC000F0E098E1908380830895EDDF803219F02E
:107FD00088E0F5DFFFCF84E1DECF1F93182FE3DFCA
:107FE0001150E9F7F2DF1F91089580E0E8DFEE27F6
:047FF000FF270994CA
:027FFE00040479
:00000001FF
